:20000000203F0020A554000001CA011001CA011001CA011001CA011001CA011001CA011040
:1C00200001CA011001CA011001CA011001CA011001CA011001CA01103FCA011082
:20003C002DE9F0410E462A4990461C4606AF8C4672680878BB8851783F881278002502EB0E
:20005C00012242F62321521A2AD0521E052A19D9921F0DD0263A35D1072F31D8C7F10700FC
:20007C00984298BF83B20CEB070000F1080121E0B84225DBC01B9842D8BF83B22380DCF813
:20009C0004100BE0F06806F017FD80B2B84217DBC01B9842D8BF83B22380F168C9190AE07C
:2000BC00082F0DD8C7F10800984298BF83B20CEB07010F31238040461A4603F09DFE03E0A9
:2000DC00072501E025800A252846BDE8F081C046A0100020024A0020082105F0F7B9C04689
:0400FC00BD6D0000D6
:200100003C000000000000000000000034010000000000000000000001000000000000006D
:1C01200000000000000000000000000001000000000000000800000000000000BA
:20013C00340000000000000000000000680100000000000000000000010000000000000005
:14015C00010000000000000000000000080000000000000086
:2001700030000000000000000000000098010000040000000000000001000000FFFFFFFFA5
:10019000FF00000001000000080000000000000057
:2001A0002C0000000000000000000000C4010000040000000000000001000000FFFFFFFF4D
:0C01C000FFFFFFFF08000000000000002F
:2001CC0034050000E401000099A1011095A70110A5C2011009B2011045B80110000000000B
:0801EC00000000002F000000DC
:2001F400280000000000000000000000140200000000000000000000FFFFFFFF00000000B1
:080214000800000000000000DA
:20021C00300500003002000069C201106DC101101FC2011095BA011000000000000000008E
:04023C002D00000091
:20024000300500005402000075C20110A9B601109DBF011049B601100000000000000000DE
:040260002E0000006C
:200264002400000000000000000000008002000000000000000000000000000008000000CC
:040284000000000076
:20028800240000000000000000000000A40200000000000000000000000000000800000084
:0402A8000000000052
:2002AC00240000000000000000000000C8020000000000000100000000000000080000003B
:0402CC00000000002E
:2002D00000000000BC16002004000000000000000000000020000000700100003000000057
:2002F0001C020000C41600200400000000000000000000000C00000030040000180000007A
:2003100040020000CC160020040000000000000000000000240000004804000018000000FD
:2003300000000000D416002004000000000000000000000010000000A00100002C000000C2
:20035000CC010000DC16002004000000000000000000000020000000640200002400000000
:20037000FFFFFFFFE41600200400000000000000000000002800000088020000240000007D
:20039000FFFFFFFFEC160020040000000000000000000000580000003C0100003400000062
:2003B000FFFFFFFFF416002004000000000000000000000010000000600400001800000077
:2003D000FFFFFFFFFC1600200400000000000000000000001C000000AC02000024000000ED
:2003F000FFFFFFFF0417002004000000000000000000000038000000F4010000280000005D
:20041000FFFFFFFF0C17002004000000000000000000000054000000000100003C000000F8
:1804300018000000000000000000000040040000080000000000000050
:1804480018000000000000000000000058040000080000000000000020
:18046000180000000000000000000000700400000800000000000000F0
:0804780001000000C072000049
:0404800006F0C7BCFF
:040484000100000073
:0404880000000E0062
:04048C0000000F005D
:040490003200000036
:040494000100000063
:040498005C160020CE
:04049C00000200005A
:0404A0000000000058
:0404A40001CA011078
:0404A8000000000050
:0404AC00000000004C
:0404B0000800000040
:0404B4000000230021
:0404B80044150020C7
:0404BC00010000003B
:0404C000741600208E
:0404C400080000002C
:0404C8000000000030
:0404CC00000000002C
:0404D0000000000028
:0404D4000000000024
:0404D8000000000020
:0404DC00010000001B
:0404E000AC15002037
:0404E400060000000E
:0404E800010000000F
:0404EC007014002068
:0404F0000000000008
:0404F4000000000004
:0404F80000020000FE
:0404FC0000000000FC
:02050000704742
:020502002900CE
:020504000100F4
:020506002500CE
:020508002D00C4
:02050A002E00C1
:02050C002F00BE
:02050E000100EA
:0105100001E9
:08051400030000008C720000DE
:08051C000000000000000000D7
:0405240000000100D2
:0405280000000300CC
:04052C0087C401106F
:04053000380500008A
:040534003805000086
:0405380000000000BF
:04053C00900000002B
:040540009000000027
:0405440000000000B3
:040548007416002005
:04054C000F6B000031
:040550002000000087
:0405540034720000FD
:04055800FC71000032
:04055C000DC30110BA
:04056000335F000005
:040564003B650000F3
:0405680099C801101D
:04056C009BC8011017
:040570000000000087
:04057400FB71000017
:040578004C710000C2
:04057C0064710000A6
:0405800034710000D2
:0205840008006D
:0205860009006A
:02058800010070
:02058A0000006F
:01058C00016D
:040590000000000067
:040594000000000063
:04059800000000005F
:04059C00000000005B
:0405A0001B6E0000CE
:0405A400F159000009
:0405A800CD6500001D
:0405AC00D55D000019
:0405B000295A0000C4
:0405B40015610000CD
:0405B800E147000017
:0405BC00436C00008C
:0405C000514D000099
:0405C40011C8011049
:0405C80021C8011035
:0405CC000800000023
:0405D0002400000003
:0405D400180000000B
:0405D80028000000F7
:0405DC0020000000FB
:0405E0003C000000DB
:0405E4000C00000007
:0405E80034000000DB
:2005EC002DE9F04F0120ADF1240DADF80A000827ADF8087002A805F0AFFC00263546DF4C99
:20060C008DF81C509DF80C006070A6700498E0614FF6FF70A082384605F0E4FF5FEA0008FC
:20062C000CD00121122206F0FFFA05F0EBFF07A90123DB4A0091414605F07EF99DF81C0080
:20064C000121DFF86083207032463346009104F1A800414604F0B6FD022104F1CC00324679
:20066C0033460091414604F0ADFD042104F1F000324633460091414604F0A4FD04203146FC
:20068C001022E07004F1480003F048FF04F158003146102203F042FF25622672667207200D
:2006AC00E67204F148021021A072022005F03EFB04F158020320102105F038FB042004F120
:2006CC002002014605F032FB19E0A078B4F84050B4F84230B4F84420B4F8461006280ED1F9
:2006EC00ADF80A50ADF80C30ADF80E20CA48ADF8101006F086FB012002A903F08FFE0A2077
:20070C00ADF80A00ADF808704FF0FF35039502A805F022FC002840F0D78130460690ADF8D8
:20072C0008700925ADF80A5002A805F015FCDDF810900028CDF8189040F0C681BDF80C0016
:20074C00102840F0B58160789DF80E10884240F0AF814D4628884FF6FF71814200F0A0816E
:20076C002B78A23B00F085812E3B40F0A181A878B046002800F05281801E00F02A81401EA4
:20078C00012840F2FD80801E00F0AD80401E73D0401E60D0083800F05D81801E40F05F81CF
:2007AC0094F83E30A888052BADF808004BD001208DF81200984806F024FB94F83E0001286B
:2007CC0020D004281ED003280DD002280BD00698C188ADF80A100189ADF80C104189ADF896
:2007EC000E1080892BE0B4F84000B4F84250ADF80A00B4F84430ADF80C50B4F84600ADF82A
:20080C000E301CE0B4F84000E9888842D8BF081CADF80A002989B4F842008842D8BF081CDC
:20082C00ADF80C006989B4F844008842D8BF081CADF80E00B4F84610A889814200DC0146C8
:20084C00ADF8101001E08DF81260AC4A02A8122105F0EDFA03E1AA4806F0D3FA687800289F
:20086C0040F0FD80E888E0822889208368896083694806F067F9F2E0B5F804A00A2005F07C
:20088C00B1FE5FEA00080AD00121152206F0CCF9A8F808A005F0B6FE414605F0D3FCB94821
:2008AC003146062203F03AFEE68226836683A8796073594806F0A5FA914806F0A2FA4FF094
:2008CC0001084FF6FF706379A0824BB9A879082814BF04200520A070404606F079F8BEE045
:2008EC000320A070BBE06878002840D1A549281D02680A60808888800623A3706889A0829F
:20090C00E889E082288A2083688A6083E878207394F83E00012818BF022808D11F2004F0DB
:20092C00C1FE4FF47A7141433B4805F023F895F803B0B5F80AA0142005F054FE5FEA000844
:20094C0000F090800121142206F06EF988F808B02D1DC8F80C50A8F810A0042088F8120032
:20096C0005F050FE804A414604F0C8FF7AE0687831286DD12671042025E0C046C808002095
:20098C006878002864D1A878618AA278032815D02079657941B9012814BF6671267109E015
:2009AC00276C0000DD690000054303D0714804F0E1FFA278072ADED1062004E0062A06D0A0
:2009CC00207910B90320A0704CE00220FBE70720F9E7687800283BD1EB78A078E17993B90A
:2009EC00022815D0072813D0062802D1617901290ED103280CD05F4806F0A4F840B901208C
:200A0C0005F0E6FF04E0604A404604F0F1FA68706878E8B923E0C046940900206878B8B98D
:200A2C00554A0220102105F09BF9544A0320102105F096F95548ED1C29680160AB888380EB
:200A4C00534A01252846A179A57004F0D1FA48B1A77007E0A888454A102105F0CFF9B8F11E
:200A6C00010F25D1606A18B3016809B3A07888471EE0687913281BD12889012808D1A07BEF
:200A8C00022805D11E4806F0BCF904F00DFC0FE0052004F007FE0146194804F06BFF07E042
:200AAC006888C00B04D3364A0420014605F058F9069848B1ADF808700320ADF80A00CDF81C
:200ACC000C9002A805F048FA208A65792179420830D320F0010055EA010320822AD08DB9E8
:200AEC002C49207A8DF80800657A8DF809500A680DF10A031A608988998006E0B16D00006C
:200B0C00B809002003208DF80800A07AE57A184A8DF8100006218DF8115002A804F0DEFC43
:200B2C00616A30B1A77021B1086810B1096838468847208A810807D3174920F00200208204
:200B4C00304603F06BFC208AC108FFF4D8AD20F00400A57B2082681E3FF4B7AD401E7FF40A
:200B6C00CEAD04F0A1FBCAE5EF6B0000D56D0000C96D0000700900201009002020090020C2
:200B8C00E8080020000900204F090020F408002030090020FA080020060900202DE9F84F75
:200BAC008046DC480122A0F130010A60D6490F68002FFCD0D64CD54AC02704F1040B1760BC
:200BCC00DBF80010890804D22168090C41F0F00100E07221E24AE34D4FF0000A82F8541207
:200BEC00A5F1D407C0F800A0A66838683146C0F304601628A8BF203800EB2170401C1628D1
:200C0C0005DA10F10A0FB8BF6FF0090000E01520E54AE64F00F01F0040F4F85010803868BC
:200C2C0080083ABFE248C0F800A041F04061E14AA946C80E8F0EA9F13C0580F0010000F00A
:200C4C000100106087F0010000F0010090602868C0F38367C0F38F21B00C22D246F307201E
:200C6C0000280BD542425046490805D17F0806BF0127391C4FF6FF71521EF5D1002810DD56
:200C8C004FF6FF72490041F001018A4207D27F0047F001070F2F92BF01210F27111C401E41
:200CAC00F0D141EA0741182004F08AFF28682F68C0F3870107F0030041EA002188B20090CD
:200CCC00BE4840F2FF3253462C21403804F034FB4D46A5F110073868C0F30D011C2004F04D
:200CEC006FFFB54957F8080C014000F07C400143142004F065FF57F80C1C01F47C00090467
:200D0C00090C0143102004F05BFF57F8042CDBF80010C2F30350C2F30343490812D22168CD
:200D2C000C0510EB247003D41028A8BF0F2000E05046090413EB217303D4102BA8BF0F23A2
:200D4C0000E0534643EA001302F47F4002F0FF01B8F1220F40EA034041EA000124BF02F0DF
:200D6C00804211430C2004F02BFFB8F1220F32BF01202868C0F30070904CB8F1220F4FEA79
:200D8C00400040F0200084F8090126BF2868C0F3407001208A4FB8F1200F40F0100084F8CB
:200DAC00090138BF514606D33968C80C00F44070C1F384510143282004F002FFB8F1200FBB
:200DCC0026BF3868C0F301505046B8F1220F4FEA400040F0600084F80C0126BF2868C0F354
:200DEC00C0605046B8F1220F4FEAC00040F0800084F8010126BF2868C0F345505046B8F134
:200E0C00200F4FEA800040F47C40A4F89C0138BF6C490AD3386801038A15920501F47C11D0
:200E2C0000F00F00114341EA0031082004F0C8FE4F464FF480002060A7F1D000816D40F2B5
:200E4C000F226FF31F418A4213D901680068C1F30363C0F3034003B15B1E072805D006289B
:200E6C000EBF0720801C00F00F003D4943EA00100870C6F381435B1E02D05B1E27D022E062
:200E8C003968880C1FD24FF4804020604E48D0F802204B0A03F0800322F08F021343C1F3A5
:200EAC0003321A43C0F80220D0F801300A0A62F30303C0F80130026801F0E70322F0E70229
:200ECC0043EA020102E04FF0004120460160DBF80000C0F3C0030BB94020A0624FF400708B
:200EEC0020642868C0F3C14040F0300084F8C800C6F38150394E4FF04008A8B3401E0BD04E
:200F0C00401E28D0022127E09402224300600C40AC3F005040100940012005F001FC05466C
:200F2C000420294604F028F9042005F0F9FB8542FAD12648056825F07F4005F055F83046F7
:200F4C0014300068036807214FF06022280E98474FF4806020600321042004F00DF90AE0A1
:200F6C00026008408C1300500420012104F004F9174805F039F8203F38681649164B47F614
:200F8C00180500F03F0084F8CB0F32460D8018681068C168022088471248114FC0F800809A
:200FAC0001213960BDE8F88F6E6208400000094094042A4300002043FCFCFC0040A00C4055
:200FCC009813005000803F400A600840A83F0050BD37860070B00C402C200940A0010010F6
:200FEC009404604200600C402DE9F843C44CC54960890D684FF47A72401C80B290FBF2F107
:20100C0060815143401A06D1284605F04BFEC143284604F023FEE079A179814280F28C8136
:20102C000026A178626BA76BE36AC648E671032922D002291ED10078012815D002280ED00E
:20104C00042809D0032804D0052861D10320A0705EE0A42060630AE0A420E06202E04FF414
:20106C00A5706063A06303E04FF4A570E06220633046ECE7E66355E0D4F8308047EA020112
:20108C0053EA010550D1E16BB8F1000F4CD10A18D27E00F11B03882A19D1FE2917DA08186A
:2010AC001B30477897B1857885B1FF2F02D04278521E42705818401C42788A42C4BF067078
:2010CC00467003DCC8188078091A00E0C91C585C012813D002280CD0042807D003281CBFE0
:2010EC00A670311C0ED1A42060630AE0A420E06202E04FF4A5706063A06303E04FF4A570F0
:20110C00E0622063491CB1F5807FB8BFE16300DBE663012004F13C02014602F009FDA76B70
:20112C00626BE36AD4F830802579002B4CD152BBA178E069032905460FD01521324604F0C0
:20114C0073FD28463246162104F06EFD28463246172104F069FD32460EE01521012204F06C
:20116C0063FD28463246162104F05EFD28463246172104F059FD01222846182104F054FD20
:20118C000420A0714EE0521E6263E0698146CDB16D1E06D06D1E02D06D1E43D11FE0032599
:2011AC002CE01521012204F03FFD022532464846162104F039FD48460122172104F034FDF2
:2011CC0032462AE0012512E05B1EE362E06981469DB16D1EE5D06D1E08D06D1E22D11521F6
:2011EC00324604F021FD354601220CE003251521324604F019FD0122D9E70125152101228D
:20120C0004F012FD32464846162104F00DFD48463246172104F008FD01224846182104F06F
:20122C0003FD25716079B8F1000F3AD14FBBA178206A032905460FD01921324604F0F4FCD7
:20124C00284632461A2104F0EFFC284632461B2104F0EAFC32460EE01921012204F0E4FCEF
:20126C00284632461A2104F0DFFC284632461B2104F0DAFC012228461C2104F0D5FCBDE84E
:20128C00F8837F1EA763216A884640B1401E2ED0401E02D0401E52D10FE0032535E0012577
:2012AC0014E0A8F101072763216A884660B3401E1DD0401E09D0401E41D1404619210122C2
:2012CC0004F0B2FC3246154606E0032508463246192104F0A9FC012240461A2104F0A4FC6E
:2012EC00404601221B2104F09FFC32461DE008463246192104F098FC022501220BE0C04636
:20130C000802002008150020012508460122192104F08AFC324640461A2104F085FC4046DB
:20132C0032461B2104F080FC012240461C2104F07BFC6571BDE8F883401CC0B2E071BDE872
:20134C00F883C046480C00202DE9F04F08240126ADF1540DADF828400AA8ADF82A6004F003
:20136C00FBFDBA4D9DF82C0028700C9805F17401286105F15C0002F095FDE86105F18801D3
:20138C0005F1680002F08EFD002124222346286201A805F013FEAE48AE494FF47A7901AB8E
:2013AC000068ADF81460B9FBF0F2069205F1F40005F000FE05F1F40005F0F8FD05F1500774
:2013CC000021384605F0EEFD4FF0040A3246A2496F6105F1D0001346CDF800A003F0F2FE9B
:2013EC0000271F200621EF6004F068FB8DF844608DF84560ADF840902820ADF83A004FF47C
:20140C00C873ADF838703146ADF83E7011AAADF83C3040F2053000F071FA40F20630022155
:20142C000EAA00F06BFA05F1B1024FF442701E2100F064FA05F1400240F20730072100F0AF
:20144C005DFA4FF4447031460DF1450200F056FA40F2113002210DF13A0200F04FFA40F2FB
:20146C00123002210FAA00F049FA40F2133002210DF13E0200F042FA4FF44570022110AA38
:20148C0000F03CFA7549032004F01AFA0620A02104F014FB0720A02104F010FB2046A02139
:2014AC0004F00CFB0920A02104F008FBB8468DF84660B1468DF848A04FF48160CDF834801A
:2014CC0051468DF847900DAA8DF8499004F0DCFA4FF4806031460DF1460204F0D5FA40F259
:2014EC00024031460DF1470204F0CEFA40F20340314612AA04F0C8FA40F2064031460DF1D9
:20150C00490204F0C1FA032004F044FC504604F041FC5348534A132104F0E2F8ADF8284060
:20152C00514C2078ADF82AA080000B900AA804F013FD00B90C9F4D488346C76087B126786B
:20154C0046B14FF6FF713F1F404627F8041F761EB870FAD1464A0BF58E70112104F0C0F8BA
:20156C00ADF8429002208DF84A0003268DF84CA041460B228DF84B600AA802F0CFFF404681
:20158C0002210DF1420202F0D3FA48460DF14A02014602F0CDFA022049460DF14B0202F055
:2015AC00C7FA494613AA304602F0C2FA50460B210AAA02F0BDFA05F12800A778CBF80800C7
:2015CC0027BB05F1240094F801B0E6786062182005F008F8071C19D05146424605F06AFAF5
:2015EC00584604F092FF38727E724046B87204F14803FB6004F158023A6104F120017961FD
:20160C0005F000F81B4A394604F078F90C2004F0E9FF071C0AD04946524605F005FB4835EA
:20162C00BD6004F0EFFF394604F00CFE4846102104F0BCF90220102104F0B8F90E4942F237
:20164C002F0004F057FE15B0BDE8F08F08020020B8720000F50F000095690000AB6D0000AF
:20166C004411002068720000C8080020480C002074720000B76D0000976D00002DE9FE4346
:20168C00974C0F460546F80B80F00081B80880F0ED80B80F6ED2A07A00284FD138094FD35E
:2016AC000025012665708F48267205F0CBFA8E492A4604F1600005F099FB6079012821D1BB
:2016CC00A079F8B9DFF82482E669D4F81490D8F8000078B105F0E4F9A0EB09004346000B05
:2016EC003618A0611868B6EBC01F24BF281CE0610AD2E66104F1BC004FF0005105F098F93D
:20170C00284619E06671284640F60902A28694F8412002F0F00242F0010284F84120E5865A
:20172C0094F84020294602F0F00284F84020704BA16304F134061E60606118E0380914D236
:20174C00B80BC0F0C48004F1240005F058FB061C08D0706830B17568F068B6F91C10002280
:20176C002023A84727F40057B1E00020A07227F00807ACE0A968088840F60208804507D0C7
:20178C000A8B4FF61F60104040F43470088306E00A8A4FF61F60104040F434700882606978
:2017AC00D0B1042004F0BCFFB0B105F079F96169814226BF401A401E401A000BE860E868DA
:2017CC00698A401840F6C411E860814203D340F2EE22824200D9E960AE699EB14548B042B9
:2017EC0010D094F8410010F00F0F0BD1698C08F10700884206D128466FF4807100224FF07D
:20180C000073B0473C4904F16000002205F0EEFAA07958B10220ADF80000684604F0EAFD07
:20182C000026A671BDF80800A4F85C000120607020794FF00008401C207104F1200084F85B
:20184C00078005F0DCFA002808BF47F0020702D0192005F07FF96E692EB1414628464FF099
:20186C0080630A46B04727F0005730E004F12C05284605F0C4FA01F0E5FD284605F0BFFA7E
:20188C0027F0020708B147F0020720E005F086FB014604F1280005F0B2FA0646B569A8088E
:2018AC0010D27EB125EA0500B061084605F072FB706850B12A46F068B6F91C1075680023BA
:2018CC00A84702E0084605F065FB27F4804727B104F1BC00394605F0ABF8BDE8FE83C046DA
:2018EC00780E00200D3C000061650000B0210020001004407740000051300000F8B5A0F26B
:20190C00013517460E46022D40F214818A4A8B498B4B2D1F0F2D04D9143D4AD0AD1E1CD0D9
:20192C0011E0DFE815F0C300BC00F400E400B300AB000701A2009A001000100092008800AB
:20194C0079006F006300282880F2F480022E40F0F180398804F0B2F8F8BD012E40F0EA804C
:20196C0015462879012800F0E58051793878507181B9002800F0DE809078012800F0A980AC
:20198C00042800F0A680062800F0A380052800F0A080F8BD3878002840F0CC80907803283F
:2019AC0000F0A280072800F09F80052800F09C80F8BD012E40F0BE803878012840F0BA80FD
:2019CC00154605F1F00005F0BDF8002840F0B2802C46002004F13E0102F020FD002840F059
:2019EC00A98004F1CC0005F00CFAF8BD022E40F0A18038880A28C0F29D80B0F5486F00F3B0
:201A0C00998015E0022E40F095803888B0F5FA7F80F290800880F8BD022E40F08B8038886F
:201A2C000628C0F28780B0F5486F00F383801946891C0D4638E0022E7CD13888062879DB33
:201A4C00B0F5486F76DC1946F3E7012E72D1387806286FDA891F0D460EE0012E6AD13878F7
:201A6C00042867DA15460B3506E0012E62D1387808285FDA15460A352870F8BD012E59D1B1
:201A8C003878042856DA1546093506E0012E51D1387804284EDC154608352946DBE7022E5F
:201AAC0048D13888154612352946B3E7012E41D11546687901283DD011793878107161B90E
:201ACC00002837D09078012803D0042818BF052830D1012004F07CFFF8BD387850BB90788E
:201AEC00022818BF052825D1FEF7FCFAF8BD154605F1870400211F22204602F00FFD3946F5
:201B0C003246204602F080F90020EE710EE0154605F1680400211F22204602F0FFFC394612
:201B2C003246204602F070F90120AE713146224603F05EFAF8BDC046C80800200C09002016
:201B4C00080900202DE9F04F0128ADF1140D40F0F280DFF81492D9F8DC00012840F0E9807D
:201B6C000220C9F8DC0005F011FA0290012003F02BFC20B101210646C9F8DC10D5E005F037
:201B8C0001FA03906E484FF00008C0F80080012004F0C6FD012818BFCDF8008004D14046FE
:201BAC0003F07EF90120009066486E4CC0F800801934D4F8FF0F112005F080F800280CBFA6
:201BCC0046460126102005F079F808B146F002060F2005F073F808B146F004060B2005F011
:201BEC006DF830B1584800685849006B0246088890470A2005F062F80028404618BF0120B1
:201C0C004FF0805B0BF5DC7528B128685049006B0246088890474F48012707602868806992
:201C2C00014646F0200088474B48076005F040F800F001010191400815D2484804F0BCFF13
:201C4C008246BAF1040FF8D0BAF1010F06D1DBF8D80140680246414803219047404908687F
:201C6C0020F003000860404600F080F82868D4F8FF1F806B8047019801280ED0BAF1010F68
:201C8C0006D1DBF8D801406802463448394690473349086840F0030008602A480760286803
:201CAC0040690146304688470B2005F007F828B128682649C06A0246088890470A2004F0F5
:201CCC00FDFF28B128682249C06A024608889047204807600322C9F8DC201F4BC3F80080F9
:201CEC002868406B0146304688470128F8D1042003F06AFB124807601A48D4F8FF1F01682D
:201D0C008909FCD30098012802D1384603F0C8F804F0C2FF082003F057FB06460398C9F8C7
:201D2C00DC7005F02BF902F083FF029805F022F902E0042600E00126304605B0BDE8F08FB2
:201D4C000C40094000022243B8010010CA700000C670000028200860800104430040034047
:201D6C002422084014100940741200202DE9F84FDFF8F8B10746ABF13500794B0068800807
:201D8C0080F0DF8004F022FB7C490831D1F8009000254FEA29715FEA995201F101010AD204
:201DAC00C0F13E0210F10A0F4FEAE202D8BF08229142B8BF111C674CD4F87C21C2F3046280
:201DCC00162AA8BF203A2468C4F30444162CA8BF203CA2465218162A05DA12F10A0FB8BF62
:201DEC006FF0090200E015225B4C5C4E02F01F0141F4F8512180316811F0030F18BF01252B
:201E0C00C90828BF45F002050FB145F0040593F90710411A052904DA9979A94208BF9988D5
:201E2C006FD0DFF840E10F28A0F10F0829DB08EB0011A1F1F0084FEA28210091072984BF68
:201E4C0007210091062988BF06215EF821600424774604EB81043C594FEA950CA41BEE08CC
:201E6C0004F0FF0124BFC4F3072631446F08AE0824BFC4F3074631446E0828BF01EB1461DF
:201E8C0004E000214FEA950C6F080091009C5EF824E05FEA5C060EF0FF0424BFCEF30726DC
:201EAC0034447E0824BFCEF3074634446E0828BF04EB1E64009E89B2A8EB062671438031E4
:201ECC0004EB1124AAEB02010029D8BF0121342209F0FF074A4391B24FF6FF727943B1FB15
:201EEC00F4F18A4238BF111C802889B2998005DA10F1800FB8BF6FF07F0000E07F20D87179
:201F0C009D71194800681F2918604FF0000008D340F2FF128A4206D24908401C8A42FBD3D6
:201F2C0001E01F219980124F0F39090940EAC10047EA0001CBF8FB1F0026CBF8FF6FBDE8AA
:201F4C00F88F08209B1D0B4918700B4F0F60BDE8F88FC0463C1100506E62084024220840F4
:201F6C00B42100209C130050082009403500094000E7A48030100940FDFDA400AC3F005005
:201F8C002DE9F04FADF1140DFFF7DEF9744C08250A20ADF80200ADF800504FF0FF37019794
:201FAC00684603F0D9FF002840F0CD8000200490ADF800500927ADF80270684603F0CCFF9B
:201FCC00DDF808800028CDF8108040F0B780BDF80400012610285ED120789DF80610884260
:201FEC0059D1404601884FF6FF728A4223D037460678913E17D01F3E1BD14646707816287B
:20200C000BD17088294604F0C5F830B9384604F045F904980027A0610BE0317906F10800CF
:20202C0004F016FC05E04078102802D1284603F0EFF93E462FE0408800092CD3A76957B320
:20204C006078B7F802B0401C607097F804A0102004F0C8FA07F10809071C1CD00221152284
:20206C0004F0E2FDA7F808B087F80AA0C7F80C9004F0C8FA3B4A394603F040FC0746162F2B
:20208C0009D0042F07D0A0694088002104F082F8384604F003F9049800284FD0002E4DD055
:2020AC00404604F005FC49E06069064604F05EFF864208BF002702D0876804F0EDFB381C63
:2020CC003E463BD03088401E2CD0401E2DD1B07808B3001F29D10420694603F097FB9DF80E
:2020EC000000F5280DDA20499DF800000DF101020A271B31401812F8011B7F1E00F8011B25
:20210C00F9D116480768384604F0CCFDC143384603F0A4FD09E002201349A070002003F041
:20212C0075FB02E0B07801F07FFAADF800500520ADF802000196684603F00EFF606904F0EC
:20214C0011FF0028B0D02089C108FFF421AF20F00400208104F0BEFD1AE7C04608150020DE
:20216C0008020020FD6B0000480C00202DE9F843814604F08BFD002100B901216B4E30686C
:20218C000028FCD06C4D01242D1DEF6A346009B104F082FDDFF89881C7F3072008F1BC0176
:2021AC00086004F073FD002100B9214630680028FCD02F68346009B104F06EFDC7F38440B8
:2021CC00C8F8C00004F062FD0146002001B92046014630680028FCD0ED69346009B104F02E
:2021EC005BFDC5F38120C8F8D000B9F5C061C8F8B81000F0968098F8D80068B9C8F8D41008
:20220C00D8F8C000C8F8C800D8F8BC70C8F8C470D8F8D060C8F8CC60D8F8D410D8F8BC601E
:20222C00002954BF02206FF00100454605F1C8031A6801EB41014018411000EB917002EB56
:20224C00A0021A60D5F8C810C5F8C46000291CDD1E293DDDD5F8CC0030B93429B4BF1539AD
:20226C001E21C5F8C81025E02A29BABFD5F8C8000B381E20C5F8C800D5F8C4003F28B4BFA7
:20228C00401C3F20C5F8C4001FE0D5F8CC00032812D011F10B0FC6BFD5F8C8000B30201CA4
:2022AC00C5F8C800D5F8C4000028CCBF401E0020C5F8C400032009E011F1150FC6BFD5F8C6
:2022CC00C8001530201CC5F8C8000020C5F8CC00B5F8C400174E30214FF47F420823009095
:2022EC00304603F029F8009404214FF400321123304603F021F8B5F8C80004214FF4F8028D
:20230C0012230090304603F017F8B5F8CC0020214FF440620A230090304603F00DF8BDE805
:20232C00F883002088F8D800BDE8F88300800C407412002000A00C4000A00C402DE9F04FDF
:20234C00ADF1840D00F0F0FD02F0D2FF0026012804D104F0DDFA022808BF01265F49086883
:20236C00C0F38150012806D151F80C0C0127010E07FA01F006435A48614F007807F12C000C
:20238C00036802F0B5FF03F07F03012804D104F0BFFA022808BF5B1C524D2B602C463BB110
:2023AC00FF2104F140001F467F1E00F8011BFBD14D4800684FF0000900F0FF01FE291BD093
:2023CC00DFF824C100F0FF0749460122FF2F0CD0BB427FD902FA07F73E427BD100F0FF0079
:2023EC0047EA0909201880F840105CF8040F491C00F0FF07FE2FE9D1092001F0C9FA3A4886
:20240C00002124220823606017A804F0A7FD4FF0010804F1240017AA8DF87480414604F0F1
:20242C0099FD236843B3002794354FF0040BBA4608FA07F0064219D119EA000F04BF07F044
:20244C00FF0141F4C04105D03819274990F8400051F82010254801F059F9F8B24FF0FF319A
:20246C0004F06CF92368C5F800A001E0C5F800B07F1C2D1D9F42DBD301A800213022082306
:20248C0004F064FD0025FF20102101AB0990184A009504F1080004F055FD0DA828220823BD
:2024AC00294604F04BFD2B4604F160000DAA13931049149304F03EFD0F4951F80D0C20F445
:2024CC00F85040F4005041F80D0C4746C1F8FF7F0A4E376021B0BDE8F08FC046B43F0050E1
:2024EC00C0210020C01F0020A8710000007FC76765670000615400000D30094008000940B2
:20250C00181300502DE9F04F6B4CE2680746880FADF1140DC0F0C1805068406808B180476A
:20252C00E26851685E4E886808B9CD687DB13568002DFCD00022326010B18047E068416809
:20254C00C86800B180475D48503803F053FF4FF00008C6F80080534846F81C0C524804F041
:20256C0071FB40F60A09A4F834906379A4F83680BD6894F84000C34604F1340A00F0F000FF
:20258C0084F84000012BC4F838B094F84100A5F8028000F0F00040F0010084F8410001D117
:2025AC007B7C93B1B8680088A9F10801814205D0298B4FF60F400840288304E0298A4FF6DA
:2025CC000F400840288287F811803848016883680193C368406B00911022694620F0784026
:2025EC0040F0805003903248029301F00DFC494600E01D466B6813B118888142F9D1C5F8E0
:20260C0004A0687B00F0F000687304F1200004F0F6FB80680088CA1F824220D0891F8142FA
:20262C001DD03B8CEBB197F82C0097F82D30C7F824B000F0F00087F82C0003F0F00040F066
:20264C00010087F82D0007F12002A2639AF80D00A7F8228000F0F0008AF80D0001E0C4F8B6
:20266C00148030680028FCD0C6F80080012004F057F8012808D0687B00F0F00040F0010097
:20268C0068730C4804F0DEFAB9680A8A4FF6FF3010400882B86846F81C0C05B0BDE8F08FD1
:2026AC001C10044001010E04891600004C13005018000021994C0000780E0020510007061A
:2026CC002DE9F84F994692468B46064604F066FC604C0090B4F93210B4F930000AAF401A4C
:2026EC0040F6F8710140082980F29E80B4F9300004F59475401C6FF31F3020860820B4F9C6
:20270C003080EB7F33F07F0304D0401E05F12005F7D1002506F1700003F0C4FFC5F808B022
:20272C0085F81EA0C5F80490A5F81C804A48EE6097E80C00202100271940104005F1100343
:20274C0083E8030004F12000EF770368002B5ED1294603F0B7FA00285FD0A6F8B880E87F18
:20276C0040F08000E87796F8BA00012804BF86F8BA70A771607A40B1607830B10120A07293
:20278C006772A7712079401C2071009804F002FC606A00285BD16078002834D1E079012887
:2027AC0055D004F0FBFB0646207A40BBA86803F04BF82B49294AE36809681060B0B1DD681E
:2027CC001068401BB0FBF1F0012898BF012104D9DB681068C01AB0FBF1F19834204604F0C7
:2027EC00A5FB204604F0E2FB30462EE0304604F0D1FB04F1BC00042104F01AF927E01949F6
:20280C0001200870F0E7192004F0A4F91FE004F12000294603F056FA48B9B4F9300000F6D8
:20282C00FF706FF31F3020866FF001080CE0A6F8B880E87F40F08000E87796F8BA000128B5
:20284C0004BF86F8BA70A771009804F0A3FB4046BDE8F88F780E0020F1EFFF9FB0210020F8
:20286C00B8720000AC2100202DE9FC415E4C574D574EDFF860815A4F94F8E410481E0B2875
:20288C0061D8DFE800F07B2C43062343062343067664042907D001220A2945F8212C14BFE3
:2028AC000220032004E02021012045F8211C024684F8E200002045F8390C0827C5F8FF7F55
:2028CC00C5F8F37F45F8392CBDE8FC81052914BF09200620002584F8E400356070E094F8B3
:2028EC00E1700120383D002FC5F81B0004BF0620002102D00021F160032084F8E4000320EA
:20290C0045F8010C31603068800859D294F8E400012503280DD00021404660220523009105
:20292C0002F00AFD94F8E400062814BF0A200720D1E702200090002160220523404602F023
:20294C00FBFC0420C7E704F0EDFABDE8FC812249002622480E60012505600E2000F0AEFFE6
:20296C00022003F071FB84F8E45084F8E360BDE8FC81002038600C2578601FE019480068B0
:20298C0000680146202088472C3D41F61D560F2000214FF4C072072345F8010C4046C5F8DE
:2029AC0003600225009502F0C7FC404600214FF4C072072302F0F6FD0120386084F8E450A3
:2029CC0004F1780004F0F2FABDE8FC8139400C4038600C4000A00C402C500C4004800C404F
:2029EC0034600C40A0010010741200202DE9F8435C4C04F1200004F002FA15460E46009057
:202A0C0004F0CCFA05F001078146B6F1FF3F0CD1606A20B9B4F93200401C06B202E0606A28
:202A2C00B0F91C60002084F85F00304603F04CFC0326002800F08A80616ADFF81C8181426C
:202A4C0056D0009988421FD104F1980003F02AFE6E10A8083ABF206A006800202062484600
:202A6C0004F098FA0099C87F40F00400C877684603F07EFF0146404603F024F9009808B125
:202A8C007008EFD283261BE00F1C02D1832E17D013E03968884228D104F1980003F002FEE0
:202AAC0000980168AA0802D20A6802600846002202600091009860B98326484604F06AFA0C
:202ACC00E079012845D004F1BC00022103F0B0FF3FE0C17F41F00401C177684603F048FF28
:202AEC000146404603F0EEF8E4E739680091CBE7A9084FEA650603D3216A00910025256282
:202B0C00C27F0121B9401143C17704F03BFA0446002F14BF1148124803F06CFC484604F0BC
:202B2C0039FA700801D3009820B9204604F026FA83260EE0C17F41F00401C177684603F039
:202B4C0017FF0146404603F0BDF8ECE7484604F021FA3046BDE8F883A40E002001000204FF
:202B6C0001000104780E00204B484A492DE9F041ADF1280D0860FFF7E1FB4FF08055D5F842
:202B8C00D801464C036801210A4620469847D5F8D80142680121204690470021242208235B
:202BAC00684604F00BFA3E4E3E4C30684FF47A7741F28835B7FBF0F0211D80B2684305904E
:202BCC000120ADF8100004F10C0001F06BF9206004F068F83068344918342A466B46B7FBB5
:202BEC00F0F080B24243204604F0E4F9204604F0DDF9324900240320183141F80C4F401ECE
:202C0C008C60FAD1294D062005F14C010A46401E22F80C4BFBD10820254F0880254A8F60A5
:202C2C002549121D22F00303CF1A6F62EB612B62EE6905F12008944618460A4601E026F844
:202C4C00024BB142FBD8B910E82700EB810121F8044C4FF6FC761F8006EA0C0300F1E80772
:202C6C00D21A6F6106EA0201EC39A0F8E810204601F016FBA861D8F80000686101F0E4FD08
:202C8C0002F070FC02F0CEFC04F048F920460AB0BDE8F081740E00201D540000004003400D
:202CAC00B8720000081500201D6D00008413002031660000C1210020203F0020881300208D
:202CCC00F8B5414C201D0368B3F1FF3F08BF002302F00EFB002876D13C4E20683468070F0C
:202CEC0004F0FF04802C28BF002402F001FB4FF0FF3578B1401E07D0401E012802D9801E5B
:202D0C0013D014E08FB112E0381C5CD0801E0ED114340BE03846401E55D0801E53D0001F8D
:202D2C0051D0401E03D1163400E00A3465B2162D49DB27482749002501270560264E0F60DA
:202D4C00264C376020680028FCD1274A161D2449244F306820F0030001433868C0080CD228
:202D6C00106810F0030F0AD041F003003060106800F003000328FAD101E041F001011B4847
:202D8C003160006820B11A4800681846FDF706FF184819490560194F0A686FF35B4247EA0B
:202DAC000200086016490868C0F30130012806D10A681448104040F400320A60086020680C
:202DCC000028FCD1F8BDFEE718130050A0100050840460425C600C40082204430C00684284
:202DEC0004000020B03F00500040034080012843000120438C2108404820034000003901B7
:202E0C0004000940FFFFFCFC2DE9F04F0C464549CA7AADF12C0D84460592487B09900D79D0
:202E2C0000958A7A488B4B8A0E7B91F805A091F802800492B1F846E008904A7A088B03929A
:202E4C00CD7807900A7AC88A02920F6A0690CA79888A01928A79E146A9F54079B9F11D0FD2
:202E6C0010D8DFE809F05B5553514F4D4B494643413F3C3A380F34312E2B2923201E1C0FE1
:202E8C0019181716BCF1280F49DA604602F00AFC21E0099EB246D046CDF814801DE0089877
:202EAC00079007980690DDF818E005E03831086820608888A08032E070460AE0B1F8440060
:202ECC0009E0B1F8420004E0B1F8400001E091F83E00034612E0208021E0059804900498F4
:202EEC00039001E03231E2E7039802900298009006E0019A87310DE068310BE01846EAE7F6
:202F0C00009D0BE02C31D2E7276008E0583100E048311022204600F077FF00E025700BB088
:202F2C00BDE8F08FC80800202DE9F041444C94F8E700ADF1280D00286FD1394F387B01258B
:202F4C000021242284F8E7507E6884F8E6000823C4F80C6101A804F031F8002604F10C00C2
:202F6C00069601ABADF814602E490796324604F021F82D4904F1300001AB324604F01AF886
:202F8C002A4904F1540001AB324604F013F8B868014628468847DFF89C8025487B7B0078D4
:202FAC00D8F80410C1F381571BB1032F03D184F8E150032F16D0022F14D0012F26D103209F
:202FCC001D4C009031464FF040521C23204602F0B3F9009531464FF400720923204602F01C
:202FEC00ABF913E0022003F047F8032F0CBF4FF47A7142F21071114800685434B1FBF0F124
:20300C00204603F093FF204603F0D0FFD8F80000C00802D2304603F02FF80AB0BDE8F081C5
:20302C00487200009B4500000D410000AD430000C0210020B03F005000A00C40B872000056
:20304C00741200202DE9F04103F07AFC3D4E3C4F04464FEA5408A0081ED3796AE1B13D4688
:20306C00002068628A69086906F108032040104340F0020088610A691868904318604A6935
:20308C0030689043306005F12C0002F01BFE022105F1BC0003F0CCFC786A5FEA580114D202
:2030AC0000F110020CCA002122400B4008BF002A0BD0016985690C40B8622C434FF4804160
:2030CC00846107F1BC0003F0B3FC786A002835D107F12004204603F092FE051C2ED0F86815
:2030EC00E968884224D1A86802F0AEFB16490860C8B906F1080128690A6810430860686932
:20310C0031680843306000233361A86846F80C0C06F1100000680028FAD0204603F028FC34
:20312C007D62BDE8F081086801F02EFCBDE8F08107F1BC004FF4805103F07AFCBDE8F081A6
:20314C00780E00200C100440B02100202DE9F0430546ADF11C0D03F0DDFE02F02DFF4FF0E6
:20316C0000090746CDF80C9003F0D8FD30F0010014BF002F6FF0040066D068684C4658B19D
:20318C00B0F1FF3F05D004A902F0FEFE30B1804659E04FF0FF3000E02046049003F0B6FE05
:2031AC0004994FF00108461802E00A463BE004937868049903F0A6FE00282DD0684601F004
:2031CC001BFED8B99DF8040005A902F091FC88B9AB68BDF814009DF80610029A984748B137
:2031EC00BDF814009DF80660A881029BAE73C8462B6111E0029903A802F0F8FF0498641C42
:20320C00B0F1FF3FD4D00028D2D003F07FFE331A02D004989842CAD2039E03F0F1FA07F13D
:20322C00080546B1324652F80C1C0029BDD1296842F80C1C2E6003F007FC24B1786803F0BE
:20324C005DFE641EFAD1404607B0BDE8F08370472DE9F041044606AF0D78DFF8EC803888E0
:20326C00FF26022D62D14F687D783F7807EB052742F602157F1B29D04DF2EF643F1B04D098
:20328C00BF1E18BFB7F102074ED100284AD10024012B18BF0B2B43D1C8680B2B1CBF12781F
:2032AC00027006D10B2712F8013B7F1E00F8013BF9D1C9684046421C8A4205D010308842E6
:2032CC000CBF0426022634E0264632E050BB022B26D15078157805EB002535F001071DD17F
:2032EC00C86807682046394603F0ACF900280CBF0020807885420FD02046394603F0A2F982
:20330C0048B939464FF6FF7003F09CF9002808BF11240CD004808570002408E0802406E0D6
:20332C000D2404E00B2402E00A2400E00124FF2E07D040460830006818B1016809B130469C
:20334C0088472046BDE8F081480C0020F8B5364C0D46A80846D2E80865D304F1200003F028
:20336C004EFD00280EBFE068C068E06041682F4A09781160416812680978914207D08769FF
:20338C002FB16FF0FF0100224FF00073B847022002F072FE112000F0FBFA0120E071E168BA
:2033AC00087C10B16079012803D00E2000F0F0FAE16849681E488F680FB9CF681FB1002198
:2033CC00C1611C4F07601C4A40F2FF711160002787611A4941611A4803F034FC192003F0AF
:2033EC0089FDF8BD04F12C06304603F008FD00F029F8304603F003FD25F0020504F1200145
:20340C0058B9E80803D2084603F0F9FC58B104F1980003F047F9042101E045F0020104F198
:20342C00BC0003F005FBF8BD780E0020D021084000100440510007060000046002000040E5
:20344C0011250000F8B5071C72D0B86840F6030120264A1C02E04068761EF6B260B15EB12C
:20346C000388994218BF9A42F5D1F9681CC820311CC149C881E849007868BA690025BD61E5
:20348C00C8B1F87F42F00202002300F00700401E09D0401E04D0801E08D14FF0805304E00A
:2034AC004FF0804301E04FF000532A467C68F868B7F91C10A04703F071FD1E4C0646B4F950
:2034CC003200401C6FF31F30608604F12C000168CD7703F04DFA304603F05CFDF868B0F9E8
:2034EC00B810B4F93220914222D1217801291FD090F8BA60BEB90668AEB1E2680E49126880
:20350C000968B2F1FF3F13D0B6FBF1F2012A8CBFB6FBF1F10121703003F008FDF868703013
:20352C0003F044FDF8BD80F8BA50284601F02CFAF8BDC046780E0020B8720000F0B5ADF1C1
:20354C00340DFFF7F1FC304908682822082340F00200086001A8002103F0F0FC2B4E2C49AC
:20356C000524002301AA079406F1BC0003F0E2FC00213022082301A803F0E8FC0025FF27C0
:20358C001921244AADF81C5001AB099706F16000009503F0D7FC2822082301A8294603F0E8
:2035AC00CDFC1D49079406F1F00001AA2B4603F0C1FC01A829463022082303F0C7FC012412
:2035CC00ADF81C40099706F17C001A2101AB134A009503F0B7FC12492A4606F19800134699
:2035EC0003F0E8FC0F4803F02DFB86F85F507571F57135727572B5727561B4714FF6FF7099
:20360C00A6F85C000DB0F0BD00200940780E00200D6A000061650000A5440000014F0000B5
:20362C00C96400005933000010B5401EADF1380D3BD0C01E012834D9801E5ED103F04AFB9B
:20364C0000208DF83000082002F0CCFF041C0CD00121182203F0E8FA02F0D4FF0CA90123D9
:20366C00274A0091214602F067F9102002F0BAFF041C10D00121192203F0D6FA9DF83000C3
:20368C00401E208102AAE26002F0BCFF1D4A214602F034F988B307A940F21530FFF7B4FB90
:2036AC002BE0142002F0FAFD27E04FF441700AA9FFF7AAFB9DF829408DF809409DF82A30D2
:2036CC008DF80A3000228DF80C209DF82D108DF80B209DF828008DF80F109DF82C408DF8E3
:2036EC0008009DF82B308DF80E4007498DF80D3002AC22680A60606848600EB010BDC0463E
:20370C00196C00000B6C0000AF1000202DE9F0470D4606465FFA85FA280824BF2E484540F0
:20372C002E494FEA8A03C85885EA00023240C2F300672B4A06EA0504B043224006F4E02460
:20374C000243B4F5E02F01D1500E14D306F4E020074310D002F4E027B7F5A02707D0B7F532
:20376C00803704BF22F4003242F4A02203E022F4803242F4C022DFF86C80CA5008F1D00713
:20378C0039680122002002FA0AF40C4218BF101C5FEA000906D1F00D04D34146C5F38050E2
:2037AC0001F80A00300E0BD303F0F8FB290E34BF0021211C3A68A2431143396003F0EAFB24
:2037CC00B9F1000F06D0F00D04D34046C5F3805100F80A10BDE8F087006000A000100840E5
:2037EC00FF7F077F00200240F8B503F04FFA01F097F803F05DFA044604F00C000C284FD007
:20380C00E0081ED202F0A2FD274E376805460120014602F066FF31686943884211D2234CB4
:20382C008220B0FBF7F0291A204603F07FFB204603F0BCFB0120FEF785F9204602F032FF05
:20384C002FE020092CD21A4803F0B6F90428FAD01849620906D228B10A460846016821F097
:20386C00010104E00A460846016841F001010160D2F898004FF0805440F00300C2F89800C1
:20388C00D4F8B8018069014620208847D4F8B801094C806B2168804701202060206800E03A
:2038AC0030BF03F0F9F9F8BDB872000080120020004003408C2108402C2009402DE9F84339
:2038CC00044603F06BFB81462D48021992F8ED10491ECFB2002F82F8ED704BD12B4D05EBE9
:2038EC0084052E78698836F07F0788461AD1F10911D24FF08054D4F8B8018069014640460C
:20390C00884704F5DC742068406B0146404688470228F8D121E000EB8800D0F80011002054
:20392C0088471AE04FF08054D4F8B801006A014640468847D4F8B801806A01464046884709
:20394C00D4F8B801006B01464046884701210D4A0D48116001688908FCD306F03F003F282B
:20396C0001D0FFF7ABFF687800F03F003F2801D0FFF7A4FF484603F00DFBBDE8F883C0463B
:20398C007412002028200860282008409C7000002DE9F041064603F001FB2D4D8046A919A5
:2039AC0091F8ED00421C002881F8ED204AD1294C04EB8604277807F03F003F2801D0FFF76D
:2039CC00E7FF607800F03F003F2801D0FFF7E0FF668837F07F001AD1F80911D24FF080546B
:2039EC00D4F8B801406901463046884704F5DC742068406B0146304688470128F8D121E006
:203A0C0005EB8605D5F80011012088471AE04FF08054D4F8B801C069014630468847D4F83E
:203A2C00B801406A014630468847D4F8B801C06A0146304688470121074A084811600168B3
:203A4C008908FCD3404603F0A5FABDE8F081C046741200209C7000002820086028200840D4
:203A6C002DE9F041314C0546A0781F4616468846ADF1380D012803D0FFF760FD0120A07021
:203A8C00B8F1000F09D0C5F8048036B1AE6003F085FAE17819B103F07DFA00203FE0491CB0
:203AAC00C9B2E17003F076FA01243FB91D494CC909A84CC006C909AF80E806003868286059
:203ACC007868E860387C2874B8686C746861788A6882F86800B1A8610021A02205F120009A
:203AEC0000F01CFD684600212422082303F036FA8DF8184005F1380000216A4603F02AFA5B
:203B0C00684600212422082303F058FA0649069505F1700000226B4603F04CFA28460EB08C
:203B2C00BDE8F081207200009F6D0000780E0020314B00282DE9F04755D0401E4ED0401E2F
:203B4C0047D0401E0BD0401E53D10B2951D1114618460B22103000F057F9BDE8F087012989
:203B6C0047D118461178C768002F017141D023490A7800241D464FF6FF7A8846A24238DD5F
:203B8C00A000C619385A82451ED0B078E0B105F58E702B1D1121C268934204D0491E00F1FD
:203BAC001000F8D110E08146B078410805D3308801214A4600F030FBB078800804D330885C
:203BCC0002214A4600F028FB98F80020641CE4B2D4E701290DD11846C01C08E0012908D165
:203BEC001846801C03E0012903D11846401C11780170BDE8F087C046480C0020C8080020A4
:203C0C00F8B52F4D0C460646A0083AD2A00F4FD3284F3868284C20F0020040F40070386073
:203C2C00032144F8041C41F23003A360012121605022A26021604FF4CA60A06021601F48A2
:203C4C0044F80C1C02F0FEFFA81C0078012803D006F1380003F052F9002402203C6002F08C
:203C6C00F3F91120FFF72AFE307C10B90E20FFF725FE14492C7208786C72C8B10C700421CE
:203C8C0012E005F12C06304603F0B9F8FFF7DAFB304603F0B4F830B924F00204A00F07D378
:203CAC004FF0005100E0022105F1BC0002F0C0FEF8BDC046000004600C41044059330000C7
:203CCC00780E0020AC2100202DE9F04114460F4603F064F91FFA80F81F480068007808B966
:203CEC0002F080FDE7B138684FF0FF3518B140280AD3810B08D17E681EB1310A04D0310E28
:203D0C0002D1B9680F2908D93DB10CB1284620700820FFF7D3FD002418E07968BA6803E0F1
:203D2C004FF480700122014602F076F90B49012008600B4908684008FCD30A48006841685E
:203D4C00022088470CB1002121700446404603F021F92046BDE8F08158720000A802504298
:203D6C0008800240CC010010F0B520480127F84201D001F04DFA204D204F214EBD4206D2F6
:203D8C0003CD0478A4003459401CA047F6E71D48002800D08047164D164FBD4202D210CDDE
:203DAC00A047FAE7F0BD03251BE0416808300A1C2A400BD11A1C2A40AB4305D0046804300F
:203DCC000C600431043BF9D1131C05D0047801300C700131013BF9D1021C2A4001D0A84384
:203DEC0004300368002BE0D17047C046FFFFFFFF000000000000000050770000B077000095
:203E0C001077000059C50110002A4AD05FEA000C8B071CD1830722D1102A08D370B4103AC8
:203E2C0078C978C0103AFBD270BC103238D0042A2CD3082A05D30C2A24BF08C908C008C9B6
:203E4C0008C008C908C092072AD0920F22E00B780370491C401C521E22D08B07F7D1C30782
:203E6C0014D18307D8D0121F12D308C903801B0C4380001D121FF8D20AE008C903701B0A60
:203E8C0043701B0A83701B0AC370001D121FF4D2121D05D00B780370491C401C521EF9D1EA
:203EAC00604670472DE9F843234D884606464FF0FF3105F12400814603F024F800200CE053
:203ECC00FF2909D02A688A4204D905EB8101D1F894700FB1002627E0401CB8F1000F03D087
:203EEC0018F82010FE29EBD10024346074600127B46011E0FF280ED005EB80000B78726808
:203F0C00C0F8946007FA03F0104370600A680949304602F0ADF9641CB8F1000F04D008EB01
:203F2C0084010878FE28E5D1484602F0E7FF3046BDE8F883007FC767C01F00202DE9F8439B
:203F4C002020EFF3118780F31188214CA068012102F0CCFF4FF001094FF000086569216854
:203F6C00A4F81C906A1A2168A4F81E80461B401A904227D387F3118840462D18361A484663
:203F8C00294602F0AFFFB042F7D92021EFF3118781F31188E18B012903D14046294602F02B
:203FAC00A1FFB0F1FF3F06D0A169801B814238BF081C291801E0A069411902F08FFFA4F87C
:203FCC0020902560A4F81C8087F31188BDE8F883780100208B4208BF824204D90B1C021C22
:203FEC00002100207047002B08BF002A0BD10B1C021C00210020002B08BF002A1CBFC9433C
:20400C00C04300F0F4BFF0B51C4615460B46024600200021B4FA84F6202E04BFB5FA85F64F
:20402C002036B3FA83F7202F04BFB2FA82F72037F61BB6F1200727BF05FA07F400257F42C4
:20404C00B4403EBF25FA07F73C43B540A34208BFAA4201D3521BA341404149416D0845EA66
:20406C00C4756408761EF1D5F0BDFEE7B0B50446A768ADF1280D5FBB0C2000F011F9071CAF
:20408C001DD0684600212422082302F097FF002306976A466168ADF810301848059302F057
:2040AC0019FF386070B90820ADF824000C25ADF8265009A801F050FF384602F081F86FF0A5
:2040CC00030018E0E06878602069B860A7600AE002F096FB0546386802F0E4FA2069B86048
:2040EC00284602F0B1FC3868616802F01FFF386802F05CFF00200AB0B0BDC0465D6C00002B
:20410C002DE9984302F04AFF1F4CDFF87880814604F1E000007850B94446A0680146022015
:20412C0088470746102001F04FF92FB320E000F051FD002820460FD1144909683222B2FB91
:20414C00F1F101B9012100F13004204602F0EEFE204602F02BFF0FE044460022A16880F88E
:20416C00E020022088470746102001F02DF91FB1A068014603208847484602F00BFFBDE86E
:20418C009883C0464872000074120020B872000070B51E4DAC68064602F0AEFB4FF47A71AF
:2041AC00001B4843030C02F011F92969401A48BF404240F6B831F618B14210D306280EDAB4
:2041CC00E9688C420BD8286848B1114A091B51438A0C02EB1141884288BF011C08E00D49F4
:2041EC00486840080ED208687D2100F0FF004143C82905D3B1F57A6F88BF4FF47A6103E0BA
:20420C00C82101E04FF4FA61084670BD9821002040420F00AC3F00502DE9F04180461F4896
:20422C00076815460E46ADF1200D002F08BF002007D006A8009042464FF6FF711B230120C2
:20424C00B847059028B300210091BDF81810FF270DF11203024601912946029700F044FD08
:20426C00041C11D16889ADF81000700804D302F0C9F91B23074600E01D23404604A93A4629
:20428C0001F07EF8041C05D004A81B2102F0E0FA00E01524204608B0BDE8F08190160020EF
:2042AC00F8B5001D84B214F0030002D0241A241DA4B202F0A5FA1A49102C02464F690A61A9
:2042CC00C8BF8F69388800231E46C10BCD0319D126B984420ADD3B46012617E01988091899
:2042EC0089B28C42198011DC1F4608469FB1001B80B20428B4BF3C88385344F400443C80AD
:20430C003F1D08E080F40040002680B23F1838880028DAD10027104602F096FB3846F8BD24
:20432C0084130020F8B50E46044602F02BFE0546304601F0C9FF071C03D1284602F01EFE67
:20434C0028E0F87F10F0070F1DD114487968884202D079682166786002214FF0E04204F13C
:20436C00580080E80600284602F008FE04F138004FF0FF3102F0C6FD04F1680700202066AA
:20438C0097E80300F8BD284602F0F8FDF87F10F0070FFBD102200021F8BDC0466952000073
:2043AC001CB5042002F0BCF9022818D0032816D016480068C0F38150032814BF41F28832FD
:2043CC004FF47A721248144C016854342046B2FBF1F102F0ABFD204602F0E8FD1CBD03202F
:2043EC000C4C009000214FF040521C23204600F0A3FF012000214FF4007209230090204687
:20440C0000F09AFF022001F01FFE1CBDB43F0050B872000000A00C40741200202DE9FF41A9
:20442C000E4605461A4C7188E08A81420CDCB188814209DBF088218B884205D13089618B14
:20444C00884208BF18271FD0052001F02BF977888046F188B388ADF80270A08AADF80610E2
:20446C000C4AADF800003789ADF8043011216846ADF8087001F0DBFC071C05D1A57304F1D1
:20448C00F000414601F076FA38460090BDE8FF81C8080020E76D0000F8B502F07FFD1C4C3E
:2044AC000746A06D10F4602F27D0A06D400CC6B2700807D2B00803D2F00828BF022602E074
:2044CC00012600E00026751D68B200F03DFDA36D06F111010120884023EA00013846A16539
:2044EC0002F058FD04EB8600C76C4FB1A06C294600224FF00063B84702E0384602F04AFDEA
:20450C00A06D20B104F1F000002102F091FAF8BD780E0020002213460A46194671B510F083
:20452C00030F0BD0002A82BF00F8011BB2F1010210F0030FF6D1002A08BF71BD11F0FF0164
:20454C0041EA0121042A18D341EA0141082A0FD30E46102A08D30C460D46B2F10F0312F0A3
:20456C000F0272C0103BFCD812F0080F18BF42C012F0040F18BF40F8041B12F0020F18BFAE
:20458C0020F8021B12F0010F18BF017071BD704738B5054601201A4C68712879B0B902F007
:2045AC002FF92178002904BF6FF00704051C15D0491EC9B2217039B902F046FA606801F082
:2045CC00BBFD0020687118E0054613E002F018F905462078FF2805D16FF00604284602F03C
:2045EC0033FA0BE0401CC0B20128207002D1606801F0B9FD284602F027FA0024204638BDCE
:20460C00A416002070B50646B079F4680628A4F10C042CDA3079062829DA02F0F1F8154DCE
:20462C00B27991000C3501EBC20149194968E1B102F00AFA30792071B0796071307AA07138
:20464C00B179880000EBC1004019F1684068083001F0CCFDB179880000EBC1004019406845
:20466C00406802F04BFC002070BD02F0EDF96FF0020070BDC413002038B519491A4C0020CE
:20468C004822C1F8F30F94F8E200C1F8FF2F20B3012817D0022807D003281ED151F8310C10
:2046AC0000F05EF80B2016E051F8315C2846FDF75DFD40F2FF50A84202D8801CA842F1D267
:2046CC00082008E051F8310C00F026FA054800780028E7D0052084F8E400FEF7C5F838BD58
:2046EC0039400C4056720000741200202DE9FF41082504240746ADF800500E46ADF8024053
:20470C006846019401F028FC00280CBF029B002312490869F3B11F8080469E700C20ADF8CE
:20472C0000501F46ADF802404E690190684601F013FC60B9029951B18F60304602F0C6FB0D
:20474C00B8F1000F06D0404602F0D8FB02E0384602F0A2F80090BDE8FF81C04608020020A3
:20476C0038B51A4CA0F5C060D4F8B810C4F8D4000029B8BF49420028B8BF4042814220DAF8
:20478C00B4F8BC00124D30214FF47F4208230090284600F0D1FDB4F8C00004214FF4F8023C
:2047AC0012230090284600F0C7FDB4F8D00020214FF440620A230090284600F0BDFD01206E
:2047CC0000E0002084F8D80038BDC0467412002000A00C402DE9F8438146EFF31188202019
:2047EC0080F31188174D154C134F012605F11C000660A4F114000660F86A016A14208847FC
:20480C00D9F81000810C14BF000C04202060386802682321002090470948066054F8180C2F
:20482C0020F4C02040F4803044F8180C2E6088F31188BDE8F883C046840100101820094056
:20484C008002244300002443B0B5ADF1400D02F09DFB044600213C220823684602F032FB61
:20486C001148416806918168006804900F480068002205900E480891694602F01FFB071C6B
:20488C000DD001F0BDFF0546384600F029FC30B1284602F0D9F8204602F06CFB01E002F000
:2048AC00B2FA10B0B0BDC046D06F000088130020416B000030B5401E4FF00004ADF12C0D0A
:2048CC000AD0401E04D0401E20D1FDF7CDFF1DE000F066FA044619E001A8214624220823A0
:2048EC0002F06CFB06940D4DADF8144009490794012201AB05F1780002F05CFB064A23463A
:20490C002C2105F19C00009302F01CFB20460BB030BDC046C54A000085460000741200207C
:20492C00164880B507683FB315498B6803EA5300C00E21D2134A106880081DD248688008A1
:20494C001AD21068096810F0050F4FEA114101F0F00101F5E0710AD1B9420DD2190F38BFDA
:20496C0040F00100D90E38BF40F0040003E0B94202D920F00500106080BDC04628500940A6
:20498C00AC3F005000000940B0B5074602F006FB154C0546207918B3401EC0B22071F8B9C0
:2049AC0004F1BC00082102F043F8CFB1E068703001F078FEE1680D48CA680068BA1AB2FB5C
:2049CC00F0F2012A98BF012103D9C9687F1AB7FBF0F19834204602F0A9FA204602F0E6FA0D
:2049EC00284602F0D7FAB0BD780E0020B8720000F8B5844640F6FF741CF8013B002210E0BB
:204A0C00481B401E10F8015B7F1E01F8015BF9D103E01CF8010B01F8010B521C5B08082A9E
:204A2C00EADA5808F5D21CF8010B1CF8015B05F00F07FF1CC5F30315122F45EA001508D19B
:204A4C001CF8016B300A24BF1CF8010B60F3DF16BF19AC42D4D1F8BDD0B5044602F05AFA10
:204A6C0000F03EFB071C08BF6FF002041FD001F0C7FE0146A2880F480023243030F80C6F2B
:204A8C005EB902804760A26882602373786820610024084601F0D8FF09E0964208BF6FF0C6
:204AAC000204F6D05B1C062BE8D302F0ACF92046D0BDC046A01300201648144A144908B582
:204ACC00E4300078801E0A2807D8DFE800F01814100614100614100609C002F023FA11E079
:204AEC0010688008FCD250688008FCD20AE008688008FCD306E008688008FCD202E0106817
:204B0C008008FCD3FDF7B0FE08BDC04634600C4038600C4074120020134910B50A684BF28B
:204B2C00F5214843040AC2F38140012806D101F04DFC00F04DFE604304EB90540C4901F112
:204B4C00E500007830B90948006820F07F402418640802E0002081F8E50006480460210C94
:204B6C0041600123836010BDB43F005010200940741200203C600C40B0B5044602F0CEF803
:204B8C0030F0010008BF6FF004041ED002F0C2F9054601F035FE01460D480622403030F854
:204BAC000C7F6FB1A388BB4208D1406800680022854208BF0122A260002403E0521EEED122
:204BCC004FF0FF34084601F03FFF2046B0BDC0468413002008B5012001F0A2FD01281DD0C6
:204BEC000F4834210122002300F0DCFC002808BF002014D00B48006801F038FC01F07CFEB1
:204C0C000A4A93681168D060C01A074BA1EB91014343180C884228BF011C1160012008BD77
:204C2C0000A00C408000001040420F009821002098B5154B1B1D18680004070C21D001F024
:204C4C00C5FB104991F90720824205DD10F1800FB8BF6FF07F00C8718C88BC4210D80A684E
:204C6C00D3F8D40F801A801C1F2888BF1F203F1B4008C7404FF6FF70E719B84238BF071C06
:204C8C008F8098BDB421002030100940084610B500F0005100F0040008431CD0012001F095
:204CAC003FFD104C012811D00B4801683220B0FBF1F2012A8CBFB0FBF1F101216434204687
:204CCC0002F034F9204602F071F910BD034801F0B9FF0348046010BDB872000089160000E1
:204CEC0000100440AC0E0020B0B504AF3F881046002F18BF0B2024D10A78022A1DD14D68CE
:204D0C006A782F7800244FF6F17507EB02277F1B012F0CD9FF1E0AD07F1E1CBF201C0A248C
:204D2C000DD10B221A80C968FFF76EF808E001221A80C9680978017002E0002001241880AE
:204D4C002046B0BD1549096821280ADC212819D00C380FD00D380FD0001F0FD0C01E0FD042
:204D6C001AE0253810D0001F10D0401E10D0401E10D011E00868704748687047886870474F
:204D8C00C8687047086970474869704788697047C8697047086A704700207047F0010020EF
:204DAC0038B5134D95F8E100002410B91148007860B102F0F3F895F8E310002906BF0121F0
:204DCC0085F8E310012402F0E5F80CB1002038BD022001F051F90E20FEF7DAFD01F0A8FBA6
:204DEC0001280EBF0120002085F8E20038BDC0467412002056720000D0B5044602F08AF865
:204E0C0001F0DAF8061C08BF6FF004001DD001F0F7FCB168002908BF002709D051F80C2C1C
:204E2C000023B2600F4641F80C3CFF2601F8026C01F00AFEA7603FB117F8080C207117F81C
:204E4C00070CA0710020D0BD0220D0BD10B502F0A5F8114C611C097829B10E490C6802F080
:204E6C0099F8224614E002F095F801F019FE0B4A002301F0B9FD626C002314001B184FF01C
:204E8C007A0244EB01044FF09051C91842EB0402104610BD04300440780E002000093D009B
:204EAC00012838B51ED1012001F03AFC01281BD001F03AFD0D4D0E480122322305F1E0015E
:204ECC0000680A70B3FBF0F404B914463035284601F0E8FB2846214602F028F8284602F04D
:204EEC0065F801E000F086FE002038BD74120020B872000038B51248104C0168114D0C4059
:204F0C00E1430160A10908D34068800905D328464FF40051BC3001F08BFD14F4602F0BD099
:204F2C00284600F158010A6804F46024F03014430C60002101F07CFD38BDC04620000E0028
:204F4C0008100440780E002098B5044602F026F88446104890F85F10C90803D390F85E10E6
:204F6C00A14213D0B0F85C300B4F012202FA04F11943A0F85C10391D0B6804F10C07BA4092
:204F8C0093430B600F680FB900210170604602F001F898BD780E002008100440DCB5044630
:204FAC0001F0B8FF01F008F8064601F0B7FE30F0010014BF002E6FF0040017D0606858B11D
:204FCC00B0F1FF3F05D0694600F0DEFF30B107460BE04FF0FF3000E000200090706800990D
:204FEC0001F090FF002700B901273846DCBD70472DE9F04106461148401C90F800801446A5
:20500C000D46102001F0EEFA071C12D00421072201F050FD404601F078FA38727E72BD72E5
:20502C00FC6001F0EFFA044A394600F067FCBDE8F0810420BDE8F081E16D0000C808002080
:20504C00F8B5044601F066FF00F04AF8071C19D001F0D6FB84460D480021243030F80C6FC0
:20506C006EB94FF6F872028047600025856021717868A060604601F0E7FC2846F8BD491CA7
:20508C000629EBD301F0BFFEF8BDC046A0130020F8B516460C4601F081FF02460F484178B7
:2050AC00832554B1641E02D0641E10D00DE08179012904D0B0F85C1005E0476A0FB9802585
:2050CC0006E0406A818B318002E0032500E03170104601F05FFF2846F8BDC046780E002078
:2050EC002DE9F843804601F08BFB0F4C03250026814654F80C7F5FB93046C4F800800146BE
:20510C00A6600A4601F0D6FE606018B901F07BFE474501D1264601E06D1EEAD1484601F0FD
:20512C0093FC3046BDE8F883A0130020B0B5054601F0F0FE044601F0F1FD30F0010008BFCB
:20514C006FF0040414D001F05BFB0A4A002132F80C7F4FB153681B689C4204BF29710024EA
:20516C0004D0491C0629F2D36FF0040401F06CFC2046B0BDC41300207CB5114D04460E463F
:20518C00600807D3B0B20021009001220B46284600F0D2F8A00807D3B0B200900021022259
:2051AC000123284600F0C8F8E00807D3B0B2009000210C220223284600F0BEF87CBDC04626
:2051CC0000A00C40F0B50E4615461C460746002124220823ADF1240D684601F0EFFE0E9841
:2051EC0006900020059009484FF47A71AAB26B460068ADF81040B1FBF0F080B231464243B5
:20520C00384601F0D7FE09B0F0BDC046B8720000F8B506460F4D104F7388002417E0A2003C
:20522C0002EBC402921951689068D26852B9AF420BD00A7855F822200346491C08461946D6
:20524C00904701E0FEF7E0FD7388641CA4B2A342E5DCF8BD107700001C7700002DE9984381
:20526C000446276E9946904607B1B8470220002100EA080011EA090108BF002809D104F1DF
:20528C00580003C808EA000019EA010108BF002807D004F1680080E8000304F1380001F03C
:2052AC002DFEBDE89883FEE70F48B0B58178062918BF072917D14578848A0E2001F092F9CA
:2052CC00071C10D004210A2201F0F4FB284601F01CF938727C811320387301F093F9034ACB
:2052EC00394600F00BFBB0BDC8080020DB6D0000104A1068C0F30F314BF69A10884207D136
:20530C0011680B20B0EB117F14BF0020042070472430884208BF01200BD04BF64130884287
:20532C0008BF032005D0213888420CBF02204FF0FF30704718130050B0B500EB4100102B26
:20534C0004AF00F5007403D3103B00F50174120C3D889D4045EA024501F098FC002700B9FF
:20536C000127064A394610680028FCD025600120106009B101F090FCB0BDC04600800C4032
:20538C002DE9F04105461E4690460C46142001F029F9071C13D03246032101F08BFB3D81C5
:2053AC00002038744046FC6001F0AFF8787401F029F9044A394600F0A1FABDE8F08104200A
:2053CC00BDE8F0814168000070B5104C0646204601F0C6FC0025B0B9204601F00CFD0446E4
:2053EC00A06806420AD0E068226900210346304698470546012D08BF012005D0204601F058
:20540C00FCFC041CECD1284670BDC046741200200F4A0146D068ADF1080D08B90020D060C8
:20542C000846801E12D0801E10D0401E07D001208DF801009DF801000028FBD106E00120A7
:20544C008DF800009DF800000028FBD102B07047080200202DE9F04101F06CFC0D4D2B6812
:20546C008046A3B105F194070024012606FA04F018EA000F07D057F8240020B1026812B1DD
:20548C00214690472B68641CE4B29C42EED3BDE8F081C046C01F00200C4885460C48854423
:2054AC006F4607208743BD460A486F4607600A48002803D07946491D8E460047FEF754FCF7
:2054CC0001F06EFA01F0F2FCFEE7C046203F002000040000BC140020236E00002DE9F04152
:2054EC0004460E48057890460E46102001F07AF8071C10D03246042101F0DCFA284601F000
:20550C0004F83872FC6001F07DF83946424600F0F5F9BDE8F0810420BDE8F081C9080020F1
:20552C00D0B504463C20FEF7BBFE071C14D000213C22082301F0C6FC207AB86160893862EC
:20554C00E068386160683946002201F0B7FC0646384600F035FE16B96FF00300D0BD002086
:20556C00D0BD704700B500213C220823ADF13C0D684601F0A7FC094800F5B27107914FF40F
:20558C000771089103210691054900236A4600F58A7001F087FC0FB000BDC046C80800203D
:2055AC00ED050000F8B51E4640181446102E02D3103E801C240C054601F068FB002700B97E
:2055CC00012707483B460768002FFCD02D88012101600BB101F060FB2C403441A0B2F8BD35
:2055EC0000800C400E4938B5CA68824210D1487801280DD101F0D2FC0546084800F0FAFEAF
:20560C000446284601F0C6FC04F0FF00012802D06FF07F0038BD4FFAA4F038BD0100030478
:20562C00780E002000B500213C220823ADF13C0D684601F047FC094800F5DC7107914FF422
:20564C002171089101210691054900236A4600F58C7001F027FC0FB000BDC0460802002088
:20566C008D1F00002DE9F04180461C4615460E460E2000F0B7FF071C10D081203870012310
:20568C00FB70A7F804803E817D81BC8100F0BAFF069A394600F032F9BDE8F0810420BDE8B4
:2056AC00F08170473EB505460020ADF804000A2000F098FF041C0DD00421312201F0FAF9A5
:2056CC00258100F09FFF01A90223044A0091214600F032F9BDF804003EBDC046C36D000070
:2056EC00F8B5064614460D46142000F07BFF071C0FD00421022201F097FABE60BD81102001
:20570C00B8733C6100F07EFF034A394600F0F6F8F8BD0420F8BDC046E16B000070B504464F
:20572C00606810F07F4F18BF6FF0020011D101F067F8084D0646287828B1686800F0FCFC8B
:20574C00606800F010FD60686860304601F07CF9002070BDA41600203EB50546FFF74CFB6A
:20576C00041C15D1287902A900F0C2F968B10821ADF80010A86801900321ADF802106846FF
:20578C0000F0EAFB6FF005003EBDBDF80800A88020463EBD10B504460C4800680023D907B5
:2057AC00024650080143D007801A4FF47A7299410023FEF70FFC002908BFB0F1004F28BF95
:2057CC006FF000406060002010BDC046B87200000D4938B5091DD1F8EC3209681B3800FB32
:2057EC0000F409060A161906091604FB01F543F307214143C910604301EBA521424301EBC6
:20580C00A24000EB234038BDA01000500A460D4970B54B780E79CC788D7880B1401E0DD08D
:20582C00401E0AD0401E07D0401E09D1104610310B22FEF7E9FA70BD344625462B46137015
:20584C0070BDC046480C002010B50446207B00F00F00022811D1FFF7F9FAA168084C081A78
:20586C0004F10C010968C968800801F57A71814203D26FF05041814200D2002010BDC046FF
:20588C00780E002038B5044601F088FB05460B48401C007868B1204600F0ACFD0446284669
:2058AC0001F078FB04F0FF04012C0CBF8120022038BD284601F06EFB012038BD780E00204D
:2058CC00B0B504460D46102000F08CFE071C10D02146062201F0A8F90020388115247C81DD
:2058EC00054AFA6000F08EFE39462A4600F006F8B0BD0420B0BDC046A40200201CB51446A5
:20590C00CA78012A02D18A880A4B1A8000F09AFC30B9002000906946204600F09AF818B1BB
:20592C0000F052FF044603E00098447800F0CCFF20461CBD8C16002038B51C46154600F043
:20594C0081FCB0B9002000906946284600F081F878B90099487848B90846C1798C4205D168
:20596C000146049889682246FEF74EFA009800F0ABFF38BD38B50D46044601F04AFA10B1FB
:20598C00204600F08FFE084800684FF47A71B1FBF0F080B205FB00F1204601F0C7FA204605
:2059AC0001F004FB38BDC046B8720000F8B506460B489C3804780D460A2000F013FE071C89
:2059CC000CD031462A4601F02FF9204600F09DFD387200F017FE394600F034FCF8BDC046E6
:2059EC00A40200202DE9F0410F46044601F00FFA04F1280292E8600033462A46FEF7EAFA3A
:205A0C0080460B4642462846314600F0EDFF17B1303484E803004046BDE8F08170B5044674
:205A2C0004F1280090E80C000D460021284600F0DBFF04F1300292E860002D1846EB01068F
:205A4C00290C3004014300F05FFB383484E8600070BD3EB5054608200C46ADF80000202041
:205A6C00ADF802001020ADF80400684600F074FA28B90298002818BF6FF0040003D128466F
:205A8C00214600F079FC3EBDF8B5064614460D46102000F0A7FD071C0CD00421362201F05C
:205AAC0009F83E817D81FC6000F0ACFD024A3946FFF724FFF8BDC046A56D000070B5064605
:205ACC000D460C2000F08EFD041C0CD00421302200F0F0FF2681658100F094FD034A2146AC
:205AEC00FFF70CFF70BD042070BDC046CF6D0000062880B50CDA0A4F820002EBC00207F10E
:205B0C000C00875A13181FB14FF6F870B84202D14FF0FF3080BD18880880002080BDC046E1
:205B2C00C413002010B5044600212C220823ADF1300D684601F0F8F8E0200890A1686068E6
:205B4C0000236A4601F0AAF9002818BF002001D101F059F90CB010BD10B5044600212C2297
:205B6C000823ADF1300D684601F0DEF8E068A1680890606800236A4601F090F9002818BFA1
:205B8C00002001D101F03FF90CB010BD10B5044600F036FE094B0022014633F80C0F30B13E
:205BAC00A04208BFD4B203D0521C062AF5D3FF24084600F049FF204610BDC046C413002098
:205BCC00B0B50D460949441801F060F8002700B90127074A394610680028FCD02560012020
:205BEC00106009B101F058F8B0BDC04600A00C4000800C4008B503200021FFF7BDFA012034
:205C0C0000F08EFD18B10648006800F02FFC00F073FE044B083B586000F0D8FB186108BDB7
:205C2C0080000010A021002080B51746094A13688B4205D902EB8102D2F89420904201D04B
:205C4C00022080BD002007B10120034A5054002080BDC046C01F00200020024080B5071CD3
:205C6C0010D0786890FAA0F2B2FA82F3064A343252F82320974205D1044A603A136859402D
:205C8C000840106380BDC04620200020E020024038B501F083F905460948E030007838B1F1
:205CAC0006480024342101222346FFF77BFC00B10124284601F06EF9204638BD00A00C4035
:205CCC0074120020F8B5064637680D4600242C601FB901F063F9374608E001F05FF900E0C4
:205CEC003F6839680029FBD1BD4201D03D60012401F050F92046F8BDF0B5044605AFADF133
:205D0C000C0D03B9084B97E860008DE86000FCF7D7FC011C44BF00204FF0004102D42046D9
:205D2C00FEF700FB03B0F0BD69520000F8B5064614460D46102000F055FC071C0CD0052110
:205D4C00012200F0B7FE3E727D72FC6000F05AFC024A3946FFF7D2FDF8BDC046ED6D000089
:205D6C00F8B5064614460D46102000F03BFC071C0CD00521022200F09DFE3E727D72FC604B
:205D8C0000F040FC024A3946FFF7B8FDF8BDC046F36D000038B505460C2000F023FC041CA7
:205DAC000DD02946002200F03FFF4FF0FF30A06000F028FC034A2146FFF7A0FD38BD042059
:205DCC0038BDC0462D630000094910B500200A4C08600120C86114342060216844F8280C2C
:205DEC0004480068016A14208847206810BDC04600002443B001001018200940F8B504467A
:205E0C0016460D460C2000F0EDFB071C0DD02A46042100F04FFE3C810520B87200F0F2FB08
:205E2C0039463246FFF76AFDF8BD0420F8BDF8B5044616460D46102000F0D4FB071C0DD0DF
:205E4C002A46042100F036FEBC600020F86000F0D9FB39463246FFF751FDF8BD0420F8BD5C
:205E6C001078802811D1508840F27F6181420CD190883F21B1EBA02F07D1C0F3C21104290C
:205E8C0003D100F07F00834201D000207047012070471078802811D1508840F27F618142AF
:205EAC000CD190883F21B1EBA02F07D1C0F3C211032903D100F07F00834201D000207047DC
:205ECC00012070471078802811D1508840F27F6181420CD190883F21B1EBA02F07D1C0F3D4
:205EEC00C211052903D100F07F00834201D0002070470120704710B5401E14460DD0401E55
:205F0C0009D0801E05D0001F01D000F07CFF052004E0002002E0042000E0022022682146AC
:205F2C009047002010BDFEE710B50446A168606808601420FEF7B4F938B10549A368054AFD
:205F4C00096800F07FFA002010BD6FF0030010BDB4720000035F000010B504462088FFF70A
:205F6C0015FEFF2808BF4FF0FF300AD0054B810001EBC000195811B12046884710BD6FF0BB
:205F8C00010010BDD81300200A4A10B512680C464FF47A710023A1FB0001FEF71BF8002918
:205FAC0008BFB0F1004F2EBF6FF002002060002010BDC046B872000038B5054600F020FCEF
:205FCC00084C03220146243C54F80C0F18B1A84202D0521EF8D10024084600F035FD204676
:205FEC0038BDC046C41300200949020480B5120C41F8082CC0F3074041F8040C01200860BF
:20600C0004480768002FFCD00020086080BDC04644600C4084088C4310B50A4C2368C1F34E
:20602C000F2102F00F02C0F38710090440EA022023F4806323601B041B0C0B4323600143A6
:20604C00616010BD1480024010B5044600F0A6FF084BE21892F8E810491EC9B282F8E81009
:20606C0021B99A680121A1408A439A6000F092FF10BDC0467412002038B5044600F08EFFC0
:20608C00084A02F108031D680121A14012192943196092F8E810491C82F8E81000F07AFF4A
:2060AC0038BDC0467412002010B500F06BFF00F06DFF032000F0EEFE06481030006830B1E2
:2060CC00034C204600F00CFE204600F00FFE10BD5B320000A401002008B500F031FE01287E
:2060EC0001D0FFF7E0F8074800F0D0FE00F044FA00F0C8FE00F0C2FE00F0BCFE00F0B6FE06
:20610C0008BDC046B560000010B50C4600F0F4FB211AB1F1004F08D8011B091DC90F05D1A1
:20612C00001DA04288BF041C00E0041D0148046010BDC0461820094038B5044601250DE0A1
:20614C00C0F11F0005FA00F1052881EA040403DB401FFDF7B3FB01E0FFF776FFB4FA84F086
:20616C002028EDD138BD38B5044601250DE0C0F11F0005FA00F1052881EA040403DB401F31
:20618C00FDF706FC01E0FFF777FFB4FA84F02028EDD138BD38B50546074800780C4600F052
:2061AC00B4F9C2B205482946234600904FF61840FFF758FA38BDC046080200208F6D0000F7
:2061CC0010B5044600F01CFB074934F8042C6FF3DF3224F8042C4A690861241F944238BF06
:2061EC004C6100F031FC10BD8413002038B50C46054600F005FB002144F80C1C296811B9EB
:20620C002C6006E0114651F80C2C002AFAD141F80C4C00F019FC38BD10B5044660680C3095
:20622C0080B2FEF73DF850B1A18800230181FF22036000F10C0182721846A16010BD6FF026
:20624C00030010BD00B5ADF1140D8DF8040003910822ADF80020ADF802201020ADF8060040
:20626C0002208DF808006846FFF776FE05B000BD38B5094B1C6802F0FF05AC420BD902F05A
:20628C00FF0403EB8403D3F89430984203D108461146FDF73BFA38BDC01F002010B5094C61
:2062AC0004F11801096859B120B101F10800097900F0CEFAA06900F0FBFA0020A061607065
:2062CC0010BDC04608020020094902460823C87F30F07F0005D0B1F91C00824208BF081CC0
:2062EC0004D05B1E01F12001F1D100207047C046A00F0020B0B504460D46082000F072F93F
:20630C00071C0BD0812038700123FB70BC8000F079F939462A46FFF7F1FAB0BD0420B0BD2F
:20632C001078802810D1508840F27F6181420BD19088032818BF042806D1917931F010005F
:20634C0014BF1129012000D00020704738B52020EFF3118580F31188064CA068002100F040
:20636C00C5FD6169081AA169814238BF002085F3118838BD7801002010B50C46ADF1180D06
:20638C0002900821ADF8001019216846ADF802104FF0FF310191FFF7DFFD0499216006B03B
:2063AC0010BD80B5107802AF80280DD1508840F27F61814208D19088834205D1387891791D
:2063CC00884208BF012000D0002080BD0748816841F31002064991F900100068A0F54070BE
:2063EC0041430811121A803210127047285009400C130050084910B50246A1F11C0318687E
:20640C000028FCD100240C601A60D8690028FCD00C60586810BDC0461C10044038B500F0F0
:20642C00BDFD074C054694F8E000012804D1FEF7D1FB002084F8E000284600F0ABFD38BD56
:20644C007412002010B5044610460A46211C14BF0028022006D0C8608A6003480B6100F0EC
:20646C0041F8002010BDC0467412002070B5054600F00CFC002400B90124054E30680028C1
:20648C00FCD0A847012030600CB100F005FC70BD00800C4008B500F081FD064A117880B2A7
:2064AC0029B90549096800230B700123137000F071FD08BDA11600205872000010B5084C0D
:2064CC0006492069814202D100F0EAFA606104F1BC00042100F0ACFA10BDC04659330000E2
:2064EC00780E002038B50D46044600F082FC00212A462346116059685160596801B9214633
:20650C000A605A6000F046FD38BD0EB58DF806005021ADF8001068460021ADF80210FFF733
:20652C001BFD002814BFFF209DF807000EBD704706490868002818BF012005D1044B40209B
:20654C00012218600020CA617047C04604800C402C500C4008B500F0F3F900F0804100F0BA
:20656C000200084305D003484FF00051BC3000F05FFA08BD780E0020074808B510300068BE
:20658C0028B1034800F0ACFB024800F0AFFB08BD71660000256A0000A4010020074810B54C
:2065AC001030006830B1044C204600F099FB204600F09CFB10BDC0466F550000A4010020C3
:2065CC00074908B5283090E80C000020FDF702FD002908BFB0F1FF3F88BF4FF0FF3008BD6A
:2065EC00907E00000EB501900821ADF8001068460221ADF80210FFF7AFFC002814BF00200B
:20660C0002980EBD0EB50820ADF800001A20ADF802006846FFF7A0FC002814BFFF209DF8A9
:20662C0004000EBD08B542882D2A28BF6FF0010004D203490C3151F82210884708BDC046E6
:20664C00DC6F0000064A127842B1091F31F8043F984208BF081C02D0521EF7D100207047DC
:20666C00C808002010B5064C206900F0FBFB0146A06800B9E160A068401CA06010BDC04618
:20668C00A4010020054808B54168054801220838026048698969884708BDC046E401002022
:2066AC000C200940002181820449C0684969814203D10348006800F079BC7047780100204F
:2066CC00BC72000010B50446E088FFF75FFAFF2808BF4FF0FF3003D0A0712046FDF792FF8F
:2066EC0010BD02294FF0000204D0012808BF4FF47A7203E0012808BF40F2EE221046704740
:20670C001078802809D1508840F27F61814204D19088834208BF012000D000207047000075
:20672C00042807BF4FF0C0421D234FF080521C2301483421FEF736BF00A00C40002948BFE6
:20674C000021044A02EB8000026861F3050202607047C046001008400348016803480160B5
